{
  "contractName": "PlotusToken",
  "abi": [
    {
      "inputs": [
        {
          "internalType": "uint256",
          "name": "_tokenPrice",
          "type": "uint256"
        },
        {
          "internalType": "uint256",
          "name": "_supply",
          "type": "uint256"
        },
        {
          "internalType": "string",
          "name": "_name",
          "type": "string"
        },
        {
          "internalType": "string",
          "name": "_symbol",
          "type": "string"
        },
        {
          "internalType": "uint8",
          "name": "_decimals",
          "type": "uint8"
        }
      ],
      "payable": false,
      "stateMutability": "nonpayable",
      "type": "constructor"
    },
    {
      "anonymous": false,
      "inputs": [
        {
          "indexed": true,
          "internalType": "address",
          "name": "owner",
          "type": "address"
        },
        {
          "indexed": true,
          "internalType": "address",
          "name": "spender",
          "type": "address"
        },
        {
          "indexed": false,
          "internalType": "uint256",
          "name": "value",
          "type": "uint256"
        }
      ],
      "name": "Approval",
      "type": "event"
    },
    {
      "anonymous": false,
      "inputs": [
        {
          "indexed": true,
          "internalType": "address",
          "name": "member",
          "type": "address"
        }
      ],
      "name": "BlackListed",
      "type": "event"
    },
    {
      "anonymous": false,
      "inputs": [
        {
          "indexed": true,
          "internalType": "address",
          "name": "_of",
          "type": "address"
        },
        {
          "indexed": true,
          "internalType": "bytes32",
          "name": "_reason",
          "type": "bytes32"
        },
        {
          "indexed": false,
          "internalType": "uint256",
          "name": "_amount",
          "type": "uint256"
        },
        {
          "indexed": false,
          "internalType": "uint256",
          "name": "_validity",
          "type": "uint256"
        }
      ],
      "name": "Locked",
      "type": "event"
    },
    {
      "anonymous": false,
      "inputs": [
        {
          "indexed": true,
          "internalType": "address",
          "name": "from",
          "type": "address"
        },
        {
          "indexed": true,
          "internalType": "address",
          "name": "to",
          "type": "address"
        },
        {
          "indexed": false,
          "internalType": "uint256",
          "name": "value",
          "type": "uint256"
        }
      ],
      "name": "Transfer",
      "type": "event"
    },
    {
      "anonymous": false,
      "inputs": [
        {
          "indexed": true,
          "internalType": "address",
          "name": "_of",
          "type": "address"
        },
        {
          "indexed": true,
          "internalType": "bytes32",
          "name": "_reason",
          "type": "bytes32"
        },
        {
          "indexed": false,
          "internalType": "uint256",
          "name": "_amount",
          "type": "uint256"
        }
      ],
      "name": "Unlocked",
      "type": "event"
    },
    {
      "anonymous": false,
      "inputs": [
        {
          "indexed": true,
          "internalType": "address",
          "name": "member",
          "type": "address"
        }
      ],
      "name": "WhiteListed",
      "type": "event"
    },
    {
      "constant": true,
      "inputs": [],
      "name": "decimals",
      "outputs": [
        {
          "internalType": "uint8",
          "name": "",
          "type": "uint8"
        }
      ],
      "payable": false,
      "stateMutability": "view",
      "type": "function"
    },
    {
      "constant": true,
      "inputs": [],
      "name": "id",
      "outputs": [
        {
          "internalType": "uint256",
          "name": "",
          "type": "uint256"
        }
      ],
      "payable": false,
      "stateMutability": "view",
      "type": "function"
    },
    {
      "constant": true,
      "inputs": [
        {
          "internalType": "address",
          "name": "",
          "type": "address"
        }
      ],
      "name": "isLockedForMV",
      "outputs": [
        {
          "internalType": "uint256",
          "name": "",
          "type": "uint256"
        }
      ],
      "payable": false,
      "stateMutability": "view",
      "type": "function"
    },
    {
      "constant": true,
      "inputs": [
        {
          "internalType": "address",
          "name": "",
          "type": "address"
        },
        {
          "internalType": "uint256",
          "name": "",
          "type": "uint256"
        }
      ],
      "name": "lockReason",
      "outputs": [
        {
          "internalType": "bytes32",
          "name": "",
          "type": "bytes32"
        }
      ],
      "payable": false,
      "stateMutability": "view",
      "type": "function"
    },
    {
      "constant": true,
      "inputs": [
        {
          "internalType": "address",
          "name": "",
          "type": "address"
        },
        {
          "internalType": "bytes32",
          "name": "",
          "type": "bytes32"
        }
      ],
      "name": "locked",
      "outputs": [
        {
          "internalType": "uint256",
          "name": "amount",
          "type": "uint256"
        },
        {
          "internalType": "uint256",
          "name": "validity",
          "type": "uint256"
        },
        {
          "internalType": "bool",
          "name": "claimed",
          "type": "bool"
        }
      ],
      "payable": false,
      "stateMutability": "view",
      "type": "function"
    },
    {
      "constant": true,
      "inputs": [],
      "name": "name",
      "outputs": [
        {
          "internalType": "string",
          "name": "",
          "type": "string"
        }
      ],
      "payable": false,
      "stateMutability": "view",
      "type": "function"
    },
    {
      "constant": true,
      "inputs": [],
      "name": "operator",
      "outputs": [
        {
          "internalType": "address",
          "name": "",
          "type": "address"
        }
      ],
      "payable": false,
      "stateMutability": "view",
      "type": "function"
    },
    {
      "constant": true,
      "inputs": [],
      "name": "symbol",
      "outputs": [
        {
          "internalType": "string",
          "name": "",
          "type": "string"
        }
      ],
      "payable": false,
      "stateMutability": "view",
      "type": "function"
    },
    {
      "constant": true,
      "inputs": [],
      "name": "tokenPrice",
      "outputs": [
        {
          "internalType": "uint256",
          "name": "",
          "type": "uint256"
        }
      ],
      "payable": false,
      "stateMutability": "view",
      "type": "function"
    },
    {
      "constant": true,
      "inputs": [
        {
          "internalType": "address",
          "name": "",
          "type": "address"
        }
      ],
      "name": "whiteListed",
      "outputs": [
        {
          "internalType": "bool",
          "name": "",
          "type": "bool"
        }
      ],
      "payable": false,
      "stateMutability": "view",
      "type": "function"
    },
    {
      "constant": false,
      "inputs": [
        {
          "internalType": "bytes32",
          "name": "_reason",
          "type": "bytes32"
        },
        {
          "internalType": "uint256",
          "name": "_amount",
          "type": "uint256"
        },
        {
          "internalType": "uint256",
          "name": "_time",
          "type": "uint256"
        }
      ],
      "name": "lock",
      "outputs": [
        {
          "internalType": "bool",
          "name": "",
          "type": "bool"
        }
      ],
      "payable": false,
      "stateMutability": "nonpayable",
      "type": "function"
    },
    {
      "constant": false,
      "inputs": [
        {
          "internalType": "address",
          "name": "_to",
          "type": "address"
        },
        {
          "internalType": "bytes32",
          "name": "_reason",
          "type": "bytes32"
        },
        {
          "internalType": "uint256",
          "name": "_amount",
          "type": "uint256"
        },
        {
          "internalType": "uint256",
          "name": "_time",
          "type": "uint256"
        }
      ],
      "name": "transferWithLock",
      "outputs": [
        {
          "internalType": "bool",
          "name": "",
          "type": "bool"
        }
      ],
      "payable": false,
      "stateMutability": "nonpayable",
      "type": "function"
    },
    {
      "constant": true,
      "inputs": [
        {
          "internalType": "address",
          "name": "_of",
          "type": "address"
        },
        {
          "internalType": "bytes32",
          "name": "_reason",
          "type": "bytes32"
        }
      ],
      "name": "tokensLocked",
      "outputs": [
        {
          "internalType": "uint256",
          "name": "amount",
          "type": "uint256"
        }
      ],
      "payable": false,
      "stateMutability": "view",
      "type": "function"
    },
    {
      "constant": true,
      "inputs": [
        {
          "internalType": "address",
          "name": "_of",
          "type": "address"
        },
        {
          "internalType": "bytes32",
          "name": "_reason",
          "type": "bytes32"
        },
        {
          "internalType": "uint256",
          "name": "_time",
          "type": "uint256"
        }
      ],
      "name": "tokensLockedAtTime",
      "outputs": [
        {
          "internalType": "uint256",
          "name": "amount",
          "type": "uint256"
        }
      ],
      "payable": false,
      "stateMutability": "view",
      "type": "function"
    },
    {
      "constant": true,
      "inputs": [
        {
          "internalType": "address",
          "name": "_of",
          "type": "address"
        }
      ],
      "name": "totalBalanceOf",
      "outputs": [
        {
          "internalType": "uint256",
          "name": "amount",
          "type": "uint256"
        }
      ],
      "payable": false,
      "stateMutability": "view",
      "type": "function"
    },
    {
      "constant": false,
      "inputs": [
        {
          "internalType": "bytes32",
          "name": "_reason",
          "type": "bytes32"
        },
        {
          "internalType": "uint256",
          "name": "_time",
          "type": "uint256"
        }
      ],
      "name": "extendLock",
      "outputs": [
        {
          "internalType": "bool",
          "name": "",
          "type": "bool"
        }
      ],
      "payable": false,
      "stateMutability": "nonpayable",
      "type": "function"
    },
    {
      "constant": false,
      "inputs": [
        {
          "internalType": "bytes32",
          "name": "_reason",
          "type": "bytes32"
        },
        {
          "internalType": "uint256",
          "name": "_amount",
          "type": "uint256"
        }
      ],
      "name": "increaseLockAmount",
      "outputs": [
        {
          "internalType": "bool",
          "name": "",
          "type": "bool"
        }
      ],
      "payable": false,
      "stateMutability": "nonpayable",
      "type": "function"
    },
    {
      "constant": true,
      "inputs": [
        {
          "internalType": "address",
          "name": "_of",
          "type": "address"
        },
        {
          "internalType": "bytes32",
          "name": "_reason",
          "type": "bytes32"
        }
      ],
      "name": "tokensUnlockable",
      "outputs": [
        {
          "internalType": "uint256",
          "name": "amount",
          "type": "uint256"
        }
      ],
      "payable": false,
      "stateMutability": "view",
      "type": "function"
    },
    {
      "constant": false,
      "inputs": [
        {
          "internalType": "address",
          "name": "_of",
          "type": "address"
        }
      ],
      "name": "unlock",
      "outputs": [
        {
          "internalType": "uint256",
          "name": "unlockableTokens",
          "type": "uint256"
        }
      ],
      "payable": false,
      "stateMutability": "nonpayable",
      "type": "function"
    },
    {
      "constant": true,
      "inputs": [
        {
          "internalType": "address",
          "name": "_of",
          "type": "address"
        }
      ],
      "name": "getUnlockableTokens",
      "outputs": [
        {
          "internalType": "uint256",
          "name": "unlockableTokens",
          "type": "uint256"
        }
      ],
      "payable": false,
      "stateMutability": "view",
      "type": "function"
    },
    {
      "constant": true,
      "inputs": [],
      "name": "totalSupply",
      "outputs": [
        {
          "internalType": "uint256",
          "name": "",
          "type": "uint256"
        }
      ],
      "payable": false,
      "stateMutability": "view",
      "type": "function"
    },
    {
      "constant": true,
      "inputs": [
        {
          "internalType": "address",
          "name": "owner",
          "type": "address"
        }
      ],
      "name": "balanceOf",
      "outputs": [
        {
          "internalType": "uint256",
          "name": "",
          "type": "uint256"
        }
      ],
      "payable": false,
      "stateMutability": "view",
      "type": "function"
    },
    {
      "constant": true,
      "inputs": [
        {
          "internalType": "address",
          "name": "owner",
          "type": "address"
        },
        {
          "internalType": "address",
          "name": "spender",
          "type": "address"
        }
      ],
      "name": "allowance",
      "outputs": [
        {
          "internalType": "uint256",
          "name": "",
          "type": "uint256"
        }
      ],
      "payable": false,
      "stateMutability": "view",
      "type": "function"
    },
    {
      "constant": false,
      "inputs": [
        {
          "internalType": "address",
          "name": "spender",
          "type": "address"
        },
        {
          "internalType": "uint256",
          "name": "value",
          "type": "uint256"
        }
      ],
      "name": "approve",
      "outputs": [
        {
          "internalType": "bool",
          "name": "",
          "type": "bool"
        }
      ],
      "payable": false,
      "stateMutability": "nonpayable",
      "type": "function"
    },
    {
      "constant": false,
      "inputs": [
        {
          "internalType": "address",
          "name": "spender",
          "type": "address"
        },
        {
          "internalType": "uint256",
          "name": "addedValue",
          "type": "uint256"
        }
      ],
      "name": "increaseAllowance",
      "outputs": [
        {
          "internalType": "bool",
          "name": "",
          "type": "bool"
        }
      ],
      "payable": false,
      "stateMutability": "nonpayable",
      "type": "function"
    },
    {
      "constant": false,
      "inputs": [
        {
          "internalType": "address",
          "name": "spender",
          "type": "address"
        },
        {
          "internalType": "uint256",
          "name": "subtractedValue",
          "type": "uint256"
        }
      ],
      "name": "decreaseAllowance",
      "outputs": [
        {
          "internalType": "bool",
          "name": "",
          "type": "bool"
        }
      ],
      "payable": false,
      "stateMutability": "nonpayable",
      "type": "function"
    },
    {
      "constant": false,
      "inputs": [
        {
          "internalType": "address",
          "name": "_member",
          "type": "address"
        }
      ],
      "name": "addToWhiteList",
      "outputs": [
        {
          "internalType": "bool",
          "name": "",
          "type": "bool"
        }
      ],
      "payable": false,
      "stateMutability": "nonpayable",
      "type": "function"
    },
    {
      "constant": false,
      "inputs": [
        {
          "internalType": "address",
          "name": "_member",
          "type": "address"
        }
      ],
      "name": "removeFromWhiteList",
      "outputs": [
        {
          "internalType": "bool",
          "name": "",
          "type": "bool"
        }
      ],
      "payable": false,
      "stateMutability": "nonpayable",
      "type": "function"
    },
    {
      "constant": false,
      "inputs": [
        {
          "internalType": "address",
          "name": "_newOperator",
          "type": "address"
        }
      ],
      "name": "changeOperator",
      "outputs": [
        {
          "internalType": "bool",
          "name": "",
          "type": "bool"
        }
      ],
      "payable": false,
      "stateMutability": "nonpayable",
      "type": "function"
    },
    {
      "constant": false,
      "inputs": [
        {
          "internalType": "uint256",
          "name": "amount",
          "type": "uint256"
        }
      ],
      "name": "burn",
      "outputs": [
        {
          "internalType": "bool",
          "name": "",
          "type": "bool"
        }
      ],
      "payable": false,
      "stateMutability": "nonpayable",
      "type": "function"
    },
    {
      "constant": false,
      "inputs": [
        {
          "internalType": "address",
          "name": "from",
          "type": "address"
        },
        {
          "internalType": "uint256",
          "name": "value",
          "type": "uint256"
        }
      ],
      "name": "burnFrom",
      "outputs": [
        {
          "internalType": "bool",
          "name": "",
          "type": "bool"
        }
      ],
      "payable": false,
      "stateMutability": "nonpayable",
      "type": "function"
    },
    {
      "constant": false,
      "inputs": [
        {
          "internalType": "address",
          "name": "account",
          "type": "address"
        },
        {
          "internalType": "uint256",
          "name": "amount",
          "type": "uint256"
        }
      ],
      "name": "mint",
      "outputs": [],
      "payable": false,
      "stateMutability": "nonpayable",
      "type": "function"
    },
    {
      "constant": false,
      "inputs": [
        {
          "internalType": "address",
          "name": "to",
          "type": "address"
        },
        {
          "internalType": "uint256",
          "name": "value",
          "type": "uint256"
        }
      ],
      "name": "transfer",
      "outputs": [
        {
          "internalType": "bool",
          "name": "",
          "type": "bool"
        }
      ],
      "payable": false,
      "stateMutability": "nonpayable",
      "type": "function"
    },
    {
      "constant": false,
      "inputs": [
        {
          "internalType": "address",
          "name": "from",
          "type": "address"
        },
        {
          "internalType": "uint256",
          "name": "value",
          "type": "uint256"
        }
      ],
      "name": "operatorTransfer",
      "outputs": [
        {
          "internalType": "bool",
          "name": "",
          "type": "bool"
        }
      ],
      "payable": false,
      "stateMutability": "nonpayable",
      "type": "function"
    },
    {
      "constant": false,
      "inputs": [
        {
          "internalType": "address",
          "name": "from",
          "type": "address"
        },
        {
          "internalType": "address",
          "name": "to",
          "type": "address"
        },
        {
          "internalType": "uint256",
          "name": "value",
          "type": "uint256"
        }
      ],
      "name": "transferFrom",
      "outputs": [
        {
          "internalType": "bool",
          "name": "",
          "type": "bool"
        }
      ],
      "payable": false,
      "stateMutability": "nonpayable",
      "type": "function"
    },
    {
      "constant": false,
      "inputs": [
        {
          "internalType": "address",
          "name": "_of",
          "type": "address"
        },
        {
          "internalType": "uint256",
          "name": "_days",
          "type": "uint256"
        }
      ],
      "name": "lockForMemberVote",
      "outputs": [],
      "payable": false,
      "stateMutability": "nonpayable",
      "type": "function"
    }
  ],
  "bytecode": "0x60806040523480156200001157600080fd5b506040516200332c3803806200332c833981810160405260a08110156200003757600080fd5b810190808051906020019092919080519060200190929190805160405193929190846401000000008211156200006c57600080fd5b838201915060208201858111156200008357600080fd5b8251866001820283011164010000000082111715620000a157600080fd5b8083526020830192505050908051906020019080838360005b83811015620000d7578082015181840152602081019050620000ba565b50505050905090810190601f168015620001055780820380516001836020036101000a031916815260200191505b50604052602001805160405193929190846401000000008211156200012957600080fd5b838201915060208201858111156200014057600080fd5b82518660018202830111640100000000821117156200015e57600080fd5b8083526020830192505050908051906020019080838360005b838110156200019457808201518184015260208101905062000177565b50505050905090810190601f168015620001c25780820380516001836020036101000a031916815260200191505b506040526020018051906020019092919050505083600e8190555083600a60003373ffffffffffffffffffffffffffffffffffffffff1673ffffffffffffffffffffffffffffffffffffffff1681526020019081526020016000208190555082600690805190602001906200023992919062000280565b5081600790805190602001906200025292919062000280565b508460098190555080600860006101000a81548160ff021916908360ff16021790555050505050506200032f565b828054600181600116156101000203166002900490600052602060002090601f016020900481019282601f10620002c357805160ff1916838001178555620002f4565b82800160010185558215620002f4579182015b82811115620002f3578251825591602001919060010190620002d6565b5b50905062000303919062000307565b5090565b6200032c91905b80821115620003285760008160009055506001016200030e565b5090565b90565b612fed806200033f6000396000f3fe608060405234801561001057600080fd5b506004361061021c5760003560e01c8063570ca73511610125578063a457c2d7116100ad578063af640d0f1161007c578063af640d0f14610d09578063b0e65d0714610d27578063d71be8db14610d8d578063dd62ed3e14610e01578063fa0fca8414610e795761021c565b8063a457c2d714610b95578063a9059cbb14610bfb578063a9dab16714610c61578063ab4a2eb314610cb15761021c565b806379cc6790116100f457806379cc6790146109e65780637ff9b59614610a4c57806381fc4d9014610a6a57806395d89b4114610aba57806398fd371f14610b3d5761021c565b8063570ca735146108805780635ca48d8c146108ca57806370a082311461092c57806371d66f00146109845761021c565b8063313ce567116101a857806347ee03941161017757806347ee0394146106a25780634b0ee02a146106fe5780634c47e71d146107565780634cb5465f146107a45780635294d0e81461081e5761021c565b8063313ce5671461058457806339509351146105a857806340c10f191461060e57806342966c681461065c5761021c565b8063179e91f1116101ef578063179e91f1146103c257806318160ddd1461042e57806323b872dd1461044c5780632e82aaf2146104d25780632f6c493c1461052c5761021c565b806301bf66481461022157806306394c9b1461027d57806306fdde03146102d9578063095ea7b31461035c575b600080fd5b6102636004803603602081101561023757600080fd5b81019080803573ffffffffffffffffffffffffffffffffffffffff169060200190929190505050610ed5565b604051808215151515815260200191505060405180910390f35b6102bf6004803603602081101561029357600080fd5b81019080803573ffffffffffffffffffffffffffffffffffffffff16906020019092919050505061102b565b604051808215151515815260200191505060405180910390f35b6102e1611127565b6040518080602001828103825283818151815260200191508051906020019080838360005b83811015610321578082015181840152602081019050610306565b50505050905090810190601f16801561034e5780820380516001836020036101000a031916815260200191505b509250505060405180910390f35b6103a86004803603604081101561037257600080fd5b81019080803573ffffffffffffffffffffffffffffffffffffffff169060200190929190803590602001909291905050506111c5565b604051808215151515815260200191505060405180910390f35b610418600480360360608110156103d857600080fd5b81019080803573ffffffffffffffffffffffffffffffffffffffff16906020019092919080359060200190929190803590602001909291905050506112f0565b6040518082815260200191505060405180910390f35b6104366113ab565b6040518082815260200191505060405180910390f35b6104b86004803603606081101561046257600080fd5b81019080803573ffffffffffffffffffffffffffffffffffffffff169060200190929190803573ffffffffffffffffffffffffffffffffffffffff169060200190929190803590602001909291905050506113b5565b604051808215151515815260200191505060405180910390f35b610512600480360360608110156104e857600080fd5b8101908080359060200190929190803590602001909291908035906020019092919050505061147c565b604051808215151515815260200191505060405180910390f35b61056e6004803603602081101561054257600080fd5b81019080803573ffffffffffffffffffffffffffffffffffffffff169060200190929190505050611838565b6040518082815260200191505060405180910390f35b61058c6118a8565b604051808260ff1660ff16815260200191505060405180910390f35b6105f4600480360360408110156105be57600080fd5b81019080803573ffffffffffffffffffffffffffffffffffffffff169060200190929190803590602001909291905050506118bb565b604051808215151515815260200191505060405180910390f35b61065a6004803603604081101561062457600080fd5b81019080803573ffffffffffffffffffffffffffffffffffffffff16906020019092919080359060200190929190505050611af0565b005b6106886004803603602081101561067257600080fd5b8101908080359060200190929190505050611baf565b604051808215151515815260200191505060405180910390f35b6106e4600480360360208110156106b857600080fd5b81019080803573ffffffffffffffffffffffffffffffffffffffff169060200190929190505050611bc4565b604051808215151515815260200191505060405180910390f35b6107406004803603602081101561071457600080fd5b81019080803573ffffffffffffffffffffffffffffffffffffffff169060200190929190505050611d1a565b6040518082815260200191505060405180910390f35b6107a26004803603604081101561076c57600080fd5b81019080803573ffffffffffffffffffffffffffffffffffffffff16906020019092919080359060200190929190505050611dfa565b005b610804600480360360808110156107ba57600080fd5b81019080803573ffffffffffffffffffffffffffffffffffffffff169060200190929190803590602001909291908035906020019092919080359060200190929190505050611f5f565b604051808215151515815260200191505060405180910390f35b61086a6004803603604081101561083457600080fd5b81019080803573ffffffffffffffffffffffffffffffffffffffff16906020019092919080359060200190929190505050611fcf565b6040518082815260200191505060405180910390f35b61088861203f565b604051808273ffffffffffffffffffffffffffffffffffffffff1673ffffffffffffffffffffffffffffffffffffffff16815260200191505060405180910390f35b610916600480360360408110156108e057600080fd5b81019080803573ffffffffffffffffffffffffffffffffffffffff16906020019092919080359060200190929190505050612065565b6040518082815260200191505060405180910390f35b61096e6004803603602081101561094257600080fd5b81019080803573ffffffffffffffffffffffffffffffffffffffff169060200190929190505050612129565b6040518082815260200191505060405180910390f35b6109d06004803603604081101561099a57600080fd5b81019080803573ffffffffffffffffffffffffffffffffffffffff16906020019092919080359060200190929190505050612172565b6040518082815260200191505060405180910390f35b610a32600480360360408110156109fc57600080fd5b81019080803573ffffffffffffffffffffffffffffffffffffffff169060200190929190803590602001909291905050506121a0565b604051808215151515815260200191505060405180910390f35b610a546121b6565b6040518082815260200191505060405180910390f35b610aa060048036036040811015610a8057600080fd5b8101908080359060200190929190803590602001909291905050506121bc565b604051808215151515815260200191505060405180910390f35b610ac2612476565b6040518080602001828103825283818151815260200191508051906020019080838360005b83811015610b02578082015181840152602081019050610ae7565b50505050905090810190601f168015610b2f5780820380516001836020036101000a031916815260200191505b509250505060405180910390f35b610b7f60048036036020811015610b5357600080fd5b81019080803573ffffffffffffffffffffffffffffffffffffffff169060200190929190505050612514565b6040518082815260200191505060405180910390f35b610be160048036036040811015610bab57600080fd5b81019080803573ffffffffffffffffffffffffffffffffffffffff1690602001909291908035906020019092919050505061252c565b604051808215151515815260200191505060405180910390f35b610c4760048036036040811015610c1157600080fd5b81019080803573ffffffffffffffffffffffffffffffffffffffff16906020019092919080359060200190929190505050612761565b604051808215151515815260200191505060405180910390f35b610c9760048036036040811015610c7757600080fd5b810190808035906020019092919080359060200190929190505050612828565b604051808215151515815260200191505060405180910390f35b610cf360048036036020811015610cc757600080fd5b81019080803573ffffffffffffffffffffffffffffffffffffffff169060200190929190505050612898565b6040518082815260200191505060405180910390f35b610d11612908565b6040518082815260200191505060405180910390f35b610d7360048036036040811015610d3d57600080fd5b81019080803573ffffffffffffffffffffffffffffffffffffffff1690602001909291908035906020019092919050505061290e565b604051808215151515815260200191505060405180910390f35b610dd960048036036040811015610da357600080fd5b81019080803573ffffffffffffffffffffffffffffffffffffffff16906020019092919080359060200190929190505050612a2e565b6040518084815260200183815260200182151515158152602001935050505060405180910390f35b610e6360048036036040811015610e1757600080fd5b81019080803573ffffffffffffffffffffffffffffffffffffffff169060200190929190803573ffffffffffffffffffffffffffffffffffffffff169060200190929190505050612a72565b6040518082815260200191505060405180910390f35b610ebb60048036036020811015610e8f57600080fd5b81019080803573ffffffffffffffffffffffffffffffffffffffff169060200190929190505050612af9565b604051808215151515815260200191505060405180910390f35b60008073ffffffffffffffffffffffffffffffffffffffff16600f60009054906101000a900473ffffffffffffffffffffffffffffffffffffffff1673ffffffffffffffffffffffffffffffffffffffff1614610f8757600f60009054906101000a900473ffffffffffffffffffffffffffffffffffffffff1673ffffffffffffffffffffffffffffffffffffffff163373ffffffffffffffffffffffffffffffffffffffff1614610f8657600080fd5b5b6000600c60008473ffffffffffffffffffffffffffffffffffffffff1673ffffffffffffffffffffffffffffffffffffffff16815260200190815260200160002060006101000a81548160ff0219169083151502179055508173ffffffffffffffffffffffffffffffffffffffff167f7fd26be6fc92aff63f1f4409b2b2ddeb272a888031d7f55ec830485ec619418660405160405180910390a260019050919050565b60008073ffffffffffffffffffffffffffffffffffffffff16600f60009054906101000a900473ffffffffffffffffffffffffffffffffffffffff1673ffffffffffffffffffffffffffffffffffffffff16146110dd57600f60009054906101000a900473ffffffffffffffffffffffffffffffffffffffff1673ffffffffffffffffffffffffffffffffffffffff163373ffffffffffffffffffffffffffffffffffffffff16146110dc57600080fd5b5b81600f60006101000a81548173ffffffffffffffffffffffffffffffffffffffff021916908373ffffffffffffffffffffffffffffffffffffffff16021790555060019050919050565b60068054600181600116156101000203166002900480601f0160208091040260200160405190810160405280929190818152602001828054600181600116156101000203166002900480156111bd5780601f10611192576101008083540402835291602001916111bd565b820191906000526020600020905b8154815290600101906020018083116111a057829003601f168201915b505050505081565b60008073ffffffffffffffffffffffffffffffffffffffff168373ffffffffffffffffffffffffffffffffffffffff16141561120057600080fd5b81600b60003373ffffffffffffffffffffffffffffffffffffffff1673ffffffffffffffffffffffffffffffffffffffff16815260200190815260200160002060008573ffffffffffffffffffffffffffffffffffffffff1673ffffffffffffffffffffffffffffffffffffffff168152602001908152602001600020819055508273ffffffffffffffffffffffffffffffffffffffff163373ffffffffffffffffffffffffffffffffffffffff167f8c5be1e5ebec7d5bd14f71427d1e84f3dd0314c0f7b2291e5b200ac8c7c3b925846040518082815260200191505060405180910390a36001905092915050565b600081600160008673ffffffffffffffffffffffffffffffffffffffff1673ffffffffffffffffffffffffffffffffffffffff16815260200190815260200160002060008581526020019081526020016000206001015411156113a457600160008573ffffffffffffffffffffffffffffffffffffffff1673ffffffffffffffffffffffffffffffffffffffff16815260200190815260200160002060008481526020019081526020016000206000015490505b9392505050565b6000600e54905090565b600082600c60008273ffffffffffffffffffffffffffffffffffffffff1673ffffffffffffffffffffffffffffffffffffffff16815260200190815260200160002060009054906101000a900460ff1661140e57600080fd5b6040517f08c379a000000000000000000000000000000000000000000000000000000000815260040180806020018281038252600a8152602001807f726573747269637465640000000000000000000000000000000000000000000081525060200191505060405180910390fd5b6000806114928342612b1990919063ffffffff16565b905060006114a03387612065565b146040518060400160405280601581526020017f546f6b656e7320616c7265616479206c6f636b656400000000000000000000008152509061157d576040517f08c379a00000000000000000000000000000000000000000000000000000000081526004018080602001828103825283818151815260200191508051906020019080838360005b83811015611542578082015181840152602081019050611527565b50505050905090810190601f16801561156f5780820380516001836020036101000a031916815260200191505b509250505060405180910390fd5b5060008414156040518060400160405280601381526020017f416d6f756e742063616e206e6f742062652030000000000000000000000000008152509061165f576040517f08c379a00000000000000000000000000000000000000000000000000000000081526004018080602001828103825283818151815260200191508051906020019080838360005b83811015611624578082015181840152602081019050611609565b50505050905090810190601f1680156116515780820380516001836020036101000a031916815260200191505b509250505060405180910390fd5b506000600160003373ffffffffffffffffffffffffffffffffffffffff1673ffffffffffffffffffffffffffffffffffffffff1681526020019081526020016000206000878152602001908152602001600020600001541415611725576000803373ffffffffffffffffffffffffffffffffffffffff1673ffffffffffffffffffffffffffffffffffffffff1681526020019081526020016000208590806001815401808255809150509060018203906000526020600020016000909192909190915055505b61172f3085612761565b50604051806060016040528085815260200182815260200160001515815250600160003373ffffffffffffffffffffffffffffffffffffffff1673ffffffffffffffffffffffffffffffffffffffff1681526020019081526020016000206000878152602001908152602001600020600082015181600001556020820151816001015560408201518160020160006101000a81548160ff021916908315150217905550905050843373ffffffffffffffffffffffffffffffffffffffff167fea90ef40963535482537f0689e05cb8d259e459ebd21530e826702294d0eafdd8684604051808381526020018281526020019250505060405180910390a360019150509392505050565b60006040517f08c379a000000000000000000000000000000000000000000000000000000000815260040180806020018281038252600a8152602001807f726573747269637465640000000000000000000000000000000000000000000081525060200191505060405180910390fd5b600860009054906101000a900460ff1681565b60008073ffffffffffffffffffffffffffffffffffffffff168373ffffffffffffffffffffffffffffffffffffffff1614156118f657600080fd5b61198582600b60003373ffffffffffffffffffffffffffffffffffffffff1673ffffffffffffffffffffffffffffffffffffffff16815260200190815260200160002060008673ffffffffffffffffffffffffffffffffffffffff1673ffffffffffffffffffffffffffffffffffffffff16815260200190815260200160002054612b1990919063ffffffff16565b600b60003373ffffffffffffffffffffffffffffffffffffffff1673ffffffffffffffffffffffffffffffffffffffff16815260200190815260200160002060008573ffffffffffffffffffffffffffffffffffffffff1673ffffffffffffffffffffffffffffffffffffffff168152602001908152602001600020819055508273ffffffffffffffffffffffffffffffffffffffff163373ffffffffffffffffffffffffffffffffffffffff167f8c5be1e5ebec7d5bd14f71427d1e84f3dd0314c0f7b2291e5b200ac8c7c3b925600b60003373ffffffffffffffffffffffffffffffffffffffff1673ffffffffffffffffffffffffffffffffffffffff16815260200190815260200160002060008773ffffffffffffffffffffffffffffffffffffffff1673ffffffffffffffffffffffffffffffffffffffff168152602001908152602001600020546040518082815260200191505060405180910390a36001905092915050565b600073ffffffffffffffffffffffffffffffffffffffff16600f60009054906101000a900473ffffffffffffffffffffffffffffffffffffffff1673ffffffffffffffffffffffffffffffffffffffff1614611ba157600f60009054906101000a900473ffffffffffffffffffffffffffffffffffffffff1673ffffffffffffffffffffffffffffffffffffffff163373ffffffffffffffffffffffffffffffffffffffff1614611ba057600080fd5b5b611bab8282612b38565b5050565b6000611bbb3383612c8c565b60019050919050565b60008073ffffffffffffffffffffffffffffffffffffffff16600f60009054906101000a900473ffffffffffffffffffffffffffffffffffffffff1673ffffffffffffffffffffffffffffffffffffffff1614611c7657600f60009054906101000a900473ffffffffffffffffffffffffffffffffffffffff1673ffffffffffffffffffffffffffffffffffffffff163373ffffffffffffffffffffffffffffffffffffffff1614611c7557600080fd5b5b6001600c60008473ffffffffffffffffffffffffffffffffffffffff1673ffffffffffffffffffffffffffffffffffffffff16815260200190815260200160002060006101000a81548160ff0219169083151502179055508173ffffffffffffffffffffffffffffffffffffffff167f2e00aa132a0165955a7de5481083fd2933e22d472949147a9c3c69eec84c170060405160405180910390a260019050919050565b6000611d2582612129565b905060008090505b6000808473ffffffffffffffffffffffffffffffffffffffff1673ffffffffffffffffffffffffffffffffffffffff16815260200190815260200160002080549050811015611df457611de5611dd6846000808773ffffffffffffffffffffffffffffffffffffffff1673ffffffffffffffffffffffffffffffffffffffff1681526020019081526020016000208481548110611dc657fe5b9060005260206000200154612065565b83612b1990919063ffffffff16565b91508080600101915050611d2d565b50919050565b600073ffffffffffffffffffffffffffffffffffffffff16600f60009054906101000a900473ffffffffffffffffffffffffffffffffffffffff1673ffffffffffffffffffffffffffffffffffffffff1614611eab57600f60009054906101000a900473ffffffffffffffffffffffffffffffffffffffff1673ffffffffffffffffffffffffffffffffffffffff163373ffffffffffffffffffffffffffffffffffffffff1614611eaa57600080fd5b5b600d60008373ffffffffffffffffffffffffffffffffffffffff1673ffffffffffffffffffffffffffffffffffffffff16815260200190815260200160002054611efe4283612b1990919063ffffffff16565b1115611f5b57611f174282612b1990919063ffffffff16565b600d60008473ffffffffffffffffffffffffffffffffffffffff1673ffffffffffffffffffffffffffffffffffffffff168152602001908152602001600020819055505b5050565b60006040517f08c379a000000000000000000000000000000000000000000000000000000000815260040180806020018281038252600a8152602001807f726573747269637465640000000000000000000000000000000000000000000081525060200191505060405180910390fd5b60006040517f08c379a000000000000000000000000000000000000000000000000000000000815260040180806020018281038252600a8152602001807f726573747269637465640000000000000000000000000000000000000000000081525060200191505060405180910390fd5b600f60009054906101000a900473ffffffffffffffffffffffffffffffffffffffff1681565b6000600160008473ffffffffffffffffffffffffffffffffffffffff1673ffffffffffffffffffffffffffffffffffffffff168152602001908152602001600020600083815260200190815260200160002060020160009054906101000a900460ff1661212357600160008473ffffffffffffffffffffffffffffffffffffffff1673ffffffffffffffffffffffffffffffffffffffff16815260200190815260200160002060008381526020019081526020016000206000015490505b92915050565b6000600a60008373ffffffffffffffffffffffffffffffffffffffff1673ffffffffffffffffffffffffffffffffffffffff168152602001908152602001600020549050919050565b6000602052816000526040600020818154811061218b57fe5b90600052602060002001600091509150505481565b60006121ac8383612df2565b6001905092915050565b60095481565b6000806121c93385612065565b116040518060400160405280601081526020017f4e6f20746f6b656e73206c6f636b656400000000000000000000000000000000815250906122a6576040517f08c379a00000000000000000000000000000000000000000000000000000000081526004018080602001828103825283818151815260200191508051906020019080838360005b8381101561226b578082015181840152602081019050612250565b50505050905090810190601f1680156122985780820380516001836020036101000a031916815260200191505b509250505060405180910390fd5b506122b13083612761565b5061231882600160003373ffffffffffffffffffffffffffffffffffffffff1673ffffffffffffffffffffffffffffffffffffffff168152602001908152602001600020600086815260200190815260200160002060000154612b1990919063ffffffff16565b600160003373ffffffffffffffffffffffffffffffffffffffff1673ffffffffffffffffffffffffffffffffffffffff168152602001908152602001600020600085815260200190815260200160002060000181905550823373ffffffffffffffffffffffffffffffffffffffff167fea90ef40963535482537f0689e05cb8d259e459ebd21530e826702294d0eafdd600160003373ffffffffffffffffffffffffffffffffffffffff1673ffffffffffffffffffffffffffffffffffffffff168152602001908152602001600020600087815260200190815260200160002060000154600160003373ffffffffffffffffffffffffffffffffffffffff1673ffffffffffffffffffffffffffffffffffffffff168152602001908152602001600020600088815260200190815260200160002060010154604051808381526020018281526020019250505060405180910390a36001905092915050565b60078054600181600116156101000203166002900480601f01602080910402602001604051908101604052809291908181526020018280546001816001161561010002031660029004801561250c5780601f106124e15761010080835404028352916020019161250c565b820191906000526020600020905b8154815290600101906020018083116124ef57829003601f168201915b505050505081565b600d6020528060005260406000206000915090505481565b60008073ffffffffffffffffffffffffffffffffffffffff168373ffffffffffffffffffffffffffffffffffffffff16141561256757600080fd5b6125f682600b60003373ffffffffffffffffffffffffffffffffffffffff1673ffffffffffffffffffffffffffffffffffffffff16815260200190815260200160002060008673ffffffffffffffffffffffffffffffffffffffff1673ffffffffffffffffffffffffffffffffffffffff16815260200190815260200160002054612f9890919063ffffffff16565b600b60003373ffffffffffffffffffffffffffffffffffffffff1673ffffffffffffffffffffffffffffffffffffffff16815260200190815260200160002060008573ffffffffffffffffffffffffffffffffffffffff1673ffffffffffffffffffffffffffffffffffffffff168152602001908152602001600020819055508273ffffffffffffffffffffffffffffffffffffffff163373ffffffffffffffffffffffffffffffffffffffff167f8c5be1e5ebec7d5bd14f71427d1e84f3dd0314c0f7b2291e5b200ac8c7c3b925600b60003373ffffffffffffffffffffffffffffffffffffffff1673ffffffffffffffffffffffffffffffffffffffff16815260200190815260200160002060008773ffffffffffffffffffffffffffffffffffffffff1673ffffffffffffffffffffffffffffffffffffffff168152602001908152602001600020546040518082815260200191505060405180910390a36001905092915050565b600082600c60008273ffffffffffffffffffffffffffffffffffffffff1673ffffffffffffffffffffffffffffffffffffffff16815260200190815260200160002060009054906101000a900460ff166127ba57600080fd5b6040517f08c379a000000000000000000000000000000000000000000000000000000000815260040180806020018281038252600a8152602001807f726573747269637465640000000000000000000000000000000000000000000081525060200191505060405180910390fd5b60006040517f08c379a000000000000000000000000000000000000000000000000000000000815260040180806020018281038252600a8152602001807f726573747269637465640000000000000000000000000000000000000000000081525060200191505060405180910390fd5b60006040517f08c379a000000000000000000000000000000000000000000000000000000000815260040180806020018281038252600a8152602001807f726573747269637465640000000000000000000000000000000000000000000081525060200191505060405180910390fd5b60025481565b60008073ffffffffffffffffffffffffffffffffffffffff16600f60009054906101000a900473ffffffffffffffffffffffffffffffffffffffff1673ffffffffffffffffffffffffffffffffffffffff16146129c057600f60009054906101000a900473ffffffffffffffffffffffffffffffffffffffff1673ffffffffffffffffffffffffffffffffffffffff163373ffffffffffffffffffffffffffffffffffffffff16146129bf57600080fd5b5b6040517f08c379a000000000000000000000000000000000000000000000000000000000815260040180806020018281038252600a8152602001807f726573747269637465640000000000000000000000000000000000000000000081525060200191505060405180910390fd5b6001602052816000526040600020602052806000526040600020600091509150508060000154908060010154908060020160009054906101000a900460ff16905083565b6000600b60008473ffffffffffffffffffffffffffffffffffffffff1673ffffffffffffffffffffffffffffffffffffffff16815260200190815260200160002060008373ffffffffffffffffffffffffffffffffffffffff1673ffffffffffffffffffffffffffffffffffffffff16815260200190815260200160002054905092915050565b600c6020528060005260406000206000915054906101000a900460ff1681565b600080828401905083811015612b2e57600080fd5b8091505092915050565b600073ffffffffffffffffffffffffffffffffffffffff168273ffffffffffffffffffffffffffffffffffffffff161415612b7257600080fd5b612b8781600e54612b1990919063ffffffff16565b600e81905550612bdf81600a60008573ffffffffffffffffffffffffffffffffffffffff1673ffffffffffffffffffffffffffffffffffffffff16815260200190815260200160002054612b1990919063ffffffff16565b600a60008473ffffffffffffffffffffffffffffffffffffffff1673ffffffffffffffffffffffffffffffffffffffff168152602001908152602001600020819055508173ffffffffffffffffffffffffffffffffffffffff16600073ffffffffffffffffffffffffffffffffffffffff167fddf252ad1be2c89b69c2b068fc378daa952ba7f163c4a11628f55a4df523b3ef836040518082815260200191505060405180910390a35050565b600a60008373ffffffffffffffffffffffffffffffffffffffff1673ffffffffffffffffffffffffffffffffffffffff16815260200190815260200160002054811115612cd857600080fd5b612ced81600e54612f9890919063ffffffff16565b600e81905550612d4581600a60008573ffffffffffffffffffffffffffffffffffffffff1673ffffffffffffffffffffffffffffffffffffffff16815260200190815260200160002054612f9890919063ffffffff16565b600a60008473ffffffffffffffffffffffffffffffffffffffff1673ffffffffffffffffffffffffffffffffffffffff16815260200190815260200160002081905550600073ffffffffffffffffffffffffffffffffffffffff168273ffffffffffffffffffffffffffffffffffffffff167fddf252ad1be2c89b69c2b068fc378daa952ba7f163c4a11628f55a4df523b3ef836040518082815260200191505060405180910390a35050565b600b60008373ffffffffffffffffffffffffffffffffffffffff1673ffffffffffffffffffffffffffffffffffffffff16815260200190815260200160002060003373ffffffffffffffffffffffffffffffffffffffff1673ffffffffffffffffffffffffffffffffffffffff16815260200190815260200160002054811115612e7b57600080fd5b612f0a81600b60008573ffffffffffffffffffffffffffffffffffffffff1673ffffffffffffffffffffffffffffffffffffffff16815260200190815260200160002060003373ffffffffffffffffffffffffffffffffffffffff1673ffffffffffffffffffffffffffffffffffffffff16815260200190815260200160002054612f9890919063ffffffff16565b600b60008473ffffffffffffffffffffffffffffffffffffffff1673ffffffffffffffffffffffffffffffffffffffff16815260200190815260200160002060003373ffffffffffffffffffffffffffffffffffffffff1673ffffffffffffffffffffffffffffffffffffffff16815260200190815260200160002081905550612f948282612c8c565b5050565b600082821115612fa757600080fd5b60008284039050809150509291505056fea265627a7a72315820ae62d860e624d034f0974eae51f74eda57e5da36b95d2f056b13be933387207264736f6c63430005100032",
  "source": "pragma solidity  ^0.5.7;\r\n\r\n// import \"./external/openzeppelin-solidity/token/ERC20/ERC20.sol\";\r\n// import \"./external/ERC1132/ERC1132.sol\";\r\n\r\nimport \"./external/openzeppelin-solidity/token/ERC20/ERC20.sol\";\r\nimport \"./external/ERC1132/ERC1132.sol\";\r\n\r\ncontract PlotusToken is ERC1132, ERC20 {\r\n\r\n   /**\r\n    * @dev Error messages for require statements\r\n    */\r\n    string internal constant ALREADY_LOCKED = 'Tokens already locked';\r\n    string internal constant NOT_LOCKED = 'No tokens locked';\r\n    string internal constant AMOUNT_ZERO = 'Amount can not be 0';\r\n\r\n    string public name;\r\n    string public symbol;\r\n    uint8 public decimals;   \r\n    uint256 public tokenPrice;\r\n\r\n    mapping (address => uint256) private _balances;\r\n    mapping (address => mapping (address => uint256)) private _allowed;\r\n    mapping (address => bool) public whiteListed;\r\n    mapping(address => uint) public isLockedForMV;\r\n    uint256 private _totalSupply;\r\n    address public operator;\r\n\r\n    modifier onlyOperator() {\r\n        if (operator != address(0))\r\n            require(msg.sender == operator);\r\n        _;\r\n    }\r\n\r\n   modifier canTransfer(address _to) {\r\n        require(whiteListed[_to]);\r\n        _;\r\n    }\r\n\r\n    event WhiteListed(address indexed member);\r\n    event BlackListed(address indexed member);\r\n\r\n   /**\r\n    * @dev constructor to mint initial tokens\r\n    * Shall update to _mint once openzepplin updates their npm package.\r\n    */\r\n    constructor(uint _tokenPrice,uint _supply, string memory _name, string memory _symbol, uint8 _decimals) public {\r\n        _totalSupply = _supply;\r\n        _balances[msg.sender] = _supply;\r\n        name = _name;\r\n        symbol = _symbol;\r\n       tokenPrice = _tokenPrice;\r\n        decimals = _decimals;\r\n    }\r\n\r\n    /**\r\n     * @dev Locks a specified amount of tokens against an address,\r\n     *      for a specified reason and time\r\n     * @param _reason The reason to lock tokens\r\n     * @param _amount Number of tokens to be locked\r\n     * @param _time Lock time in seconds\r\n     */\r\n    function lock(bytes32 _reason, uint256 _amount, uint256 _time)\r\n        public\r\n        returns (bool)\r\n    {\r\n        uint256 validUntil = now.add(_time); //solhint-disable-line\r\n\r\n        // If tokens are already locked, then functions extendLock or\r\n        // increaseLockAmount should be used to make any changes\r\n        require(tokensLocked(msg.sender, _reason) == 0, ALREADY_LOCKED);\r\n        require(_amount != 0, AMOUNT_ZERO);\r\n\r\n        if (locked[msg.sender][_reason].amount == 0)\r\n            lockReason[msg.sender].push(_reason);\r\n\r\n        transfer(address(this), _amount);\r\n\r\n        locked[msg.sender][_reason] = lockToken(_amount, validUntil, false);\r\n\r\n        emit Locked(msg.sender, _reason, _amount, validUntil);\r\n        return true;\r\n    }\r\n    \r\n    /**\r\n     * @dev Transfers and Locks a specified amount of tokens,\r\n     *      for a specified reason and time\r\n     * @param _to adress to which tokens are to be transfered\r\n     * @param _reason The reason to lock tokens\r\n     * @param _amount Number of tokens to be transfered and locked\r\n     * @param _time Lock time in seconds\r\n     */\r\n    function transferWithLock(address _to, bytes32 _reason, uint256 _amount, uint256 _time)\r\n        public\r\n        returns (bool)\r\n    {\r\n        revert(\"restricted\");\r\n    }\r\n\r\n    /**\r\n     * @dev Returns tokens locked for a specified address for a\r\n     *      specified reason\r\n     *\r\n     * @param _of The address whose tokens are locked\r\n     * @param _reason The reason to query the lock tokens for\r\n     */\r\n    function tokensLocked(address _of, bytes32 _reason)\r\n        public\r\n        view\r\n        returns (uint256 amount)\r\n    {\r\n        if (!locked[_of][_reason].claimed)\r\n            amount = locked[_of][_reason].amount;\r\n    }\r\n    \r\n    /**\r\n     * @dev Returns tokens locked for a specified address for a\r\n     *      specified reason at a specific time\r\n     *\r\n     * @param _of The address whose tokens are locked\r\n     * @param _reason The reason to query the lock tokens for\r\n     * @param _time The timestamp to query the lock tokens for\r\n     */\r\n    function tokensLockedAtTime(address _of, bytes32 _reason, uint256 _time)\r\n        public\r\n        view\r\n        returns (uint256 amount)\r\n    {\r\n        if (locked[_of][_reason].validity > _time)\r\n            amount = locked[_of][_reason].amount;\r\n    }\r\n\r\n    /**\r\n     * @dev Returns total tokens held by an address (locked + transferable)\r\n     * @param _of The address to query the total balance of\r\n     */\r\n    function totalBalanceOf(address _of)\r\n        public\r\n        view\r\n        returns (uint256 amount)\r\n    {\r\n        amount = balanceOf(_of);\r\n\r\n        for (uint256 i = 0; i < lockReason[_of].length; i++) {\r\n            amount = amount.add(tokensLocked(_of, lockReason[_of][i]));\r\n        }   \r\n    }    \r\n    \r\n   /**\r\n     * @dev Extends lock for a specified reason and time\r\n     * @param _reason The reason to lock tokens\r\n     * @param _time Lock extension time in seconds\r\n     */\r\n    function extendLock(bytes32 _reason, uint256 _time)\r\n        public\r\n        returns (bool)\r\n    {\r\n      revert(\"restricted\");\r\n    }\r\n\r\n    /**\r\n     * @dev Increase number of tokens locked for a specified reason\r\n     * @param _reason The reason to lock tokens\r\n     * @param _amount Number of tokens to be increased\r\n     */\r\n    function increaseLockAmount(bytes32 _reason, uint256 _amount)\r\n        public\r\n        returns (bool)\r\n    {\r\n        require(tokensLocked(msg.sender, _reason) > 0, NOT_LOCKED);\r\n        transfer(address(this), _amount);\r\n        locked[msg.sender][_reason].amount = locked[msg.sender][_reason].amount.add(_amount);\r\n        emit Locked(msg.sender, _reason, locked[msg.sender][_reason].amount, locked[msg.sender][_reason].validity);\r\n        return true;\r\n    }\r\n\r\n /**\r\n     * @dev Returns unlockable tokens for a specified address for a specified reason\r\n     * @param _of The address to query the the unlockable token count of\r\n     * @param _reason The reason to query the unlockable tokens for\r\n     */\r\n    function tokensUnlockable(address _of, bytes32 _reason)\r\n        public\r\n        view\r\n        returns (uint256 amount)\r\n    {\r\n        revert(\"restricted\");\r\n    }\r\n\r\n/**\r\n     * @dev Unlocks the unlockable tokens of a specified address\r\n     * @param _of Address of user, claiming back unlockable tokens\r\n     */\r\n    function unlock(address _of)\r\n        public\r\n        returns (uint256 unlockableTokens)\r\n    {\r\n        revert(\"restricted\");\r\n    }\r\n\r\n /**\r\n     * @dev Gets the unlockable tokens of a specified address\r\n     * @param _of The address to query the the unlockable token count of\r\n     */\r\n    function getUnlockableTokens(address _of)\r\n        public\r\n        view\r\n        returns (uint256 unlockableTokens)\r\n    {\r\n        revert(\"restricted\");\r\n    }\r\n\r\n  /**\r\n    * @dev Total number of tokens in existence\r\n    */\r\n    function totalSupply() public view returns (uint256) {\r\n        return _totalSupply;\r\n    }\r\n\r\n    /**\r\n    * @dev Gets the balance of the specified address.\r\n    * @param owner The address to query the balance of.\r\n    * @return An uint256 representing the amount owned by the passed address.\r\n    */\r\n    function balanceOf(address owner) public view returns (uint256) {\r\n        return _balances[owner];\r\n    }\r\n\r\n    /**\r\n    * @dev Function to check the amount of tokens that an owner allowed to a spender.\r\n    * @param owner address The address which owns the funds.\r\n    * @param spender address The address which will spend the funds.\r\n    * @return A uint256 specifying the amount of tokens still available for the spender.\r\n    */\r\n    function allowance(\r\n        address owner,\r\n        address spender\r\n    )\r\n        public\r\n        view\r\n        returns (uint256)\r\n    {\r\n        return _allowed[owner][spender];\r\n    }\r\n\r\n    /**\r\n    * @dev Approve the passed address to spend the specified amount of tokens on behalf of msg.sender.\r\n    * Beware that changing an allowance with this method brings the risk that someone may use both the old\r\n    * and the new allowance by unfortunate transaction ordering. One possible solution to mitigate this\r\n    * race condition is to first reduce the spender's allowance to 0 and set the desired value afterwards:\r\n    * https://github.com/ethereum/EIPs/issues/20#issuecomment-263524729\r\n    * @param spender The address which will spend the funds.\r\n    * @param value The amount of tokens to be spent.\r\n    */\r\n    function approve(address spender, uint256 value) public returns (bool) {\r\n        require(spender != address(0));\r\n        _allowed[msg.sender][spender] = value;\r\n        emit Approval(msg.sender, spender, value);\r\n        return true;\r\n    }\r\n\r\n    /**\r\n    * @dev Increase the amount of tokens that an owner allowed to a spender.\r\n    * approve should be called when allowed_[_spender] == 0. To increment\r\n    * allowed value is better to use this function to avoid 2 calls (and wait until\r\n    * the first transaction is mined)\r\n    * From MonolithDAO Token.sol\r\n    * @param spender The address which will spend the funds.\r\n    * @param addedValue The amount of tokens to increase the allowance by.\r\n    */\r\n    function increaseAllowance(\r\n        address spender,\r\n        uint256 addedValue\r\n    )\r\n        public\r\n        returns (bool)\r\n    {\r\n        require(spender != address(0));\r\n        _allowed[msg.sender][spender] = (\r\n        _allowed[msg.sender][spender].add(addedValue));\r\n        emit Approval(msg.sender, spender, _allowed[msg.sender][spender]);\r\n        return true;\r\n    }\r\n\r\n    /**\r\n    * @dev Decrease the amount of tokens that an owner allowed to a spender.\r\n    * approve should be called when allowed_[_spender] == 0. To decrement\r\n    * allowed value is better to use this function to avoid 2 calls (and wait until\r\n    * the first transaction is mined)\r\n    * From MonolithDAO Token.sol\r\n    * @param spender The address which will spend the funds.\r\n    * @param subtractedValue The amount of tokens to decrease the allowance by.\r\n    */\r\n    function decreaseAllowance(\r\n        address spender,\r\n        uint256 subtractedValue\r\n    )\r\n        public\r\n        returns (bool)\r\n    {\r\n        require(spender != address(0));\r\n\r\n        _allowed[msg.sender][spender] = (\r\n        _allowed[msg.sender][spender].sub(subtractedValue));\r\n        emit Approval(msg.sender, spender, _allowed[msg.sender][spender]);\r\n        return true;\r\n    }\r\n\r\n    /**\r\n    * @dev Adds a user to whitelist\r\n    * @param _member address to add to whitelist\r\n    */\r\n    function addToWhiteList(address _member) public onlyOperator returns (bool) {\r\n        whiteListed[_member] = true;\r\n        emit WhiteListed(_member);\r\n        return true;\r\n    }\r\n\r\n    /**\r\n    * @dev removes a user from whitelist\r\n    * @param _member address to remove from whitelist\r\n    */\r\n    function removeFromWhiteList(address _member) public onlyOperator returns (bool) {\r\n        whiteListed[_member] = false;\r\n        emit BlackListed(_member);\r\n        return true;\r\n    }\r\n\r\n    /**\r\n    * @dev change operator address \r\n    * @param _newOperator address of new operator\r\n    */\r\n    function changeOperator(address _newOperator) public onlyOperator returns (bool) {\r\n        operator = _newOperator;\r\n        return true;\r\n    }\r\n\r\n    /**\r\n    * @dev burns an amount of the tokens of the message sender\r\n    * account.\r\n    * @param amount The amount that will be burnt.\r\n    */\r\n    function burn(uint256 amount) public returns (bool) {\r\n        _burn(msg.sender, amount);\r\n        return true;\r\n    }\r\n\r\n    /**\r\n    * @dev Burns a specific amount of tokens from the target address and decrements allowance\r\n    * @param from address The address which you want to send tokens from\r\n    * @param value uint256 The amount of token to be burned\r\n    */\r\n    function burnFrom(address from, uint256 value) public returns (bool) {\r\n        _burnFrom(from, value);\r\n        return true;\r\n    }\r\n\r\n    /**\r\n    * @dev function that mints an amount of the token and assigns it to\r\n    * an account.\r\n    * @param account The account that will receive the created tokens.\r\n    * @param amount The amount that will be created.\r\n    */\r\n    function mint(address account, uint256 amount) public onlyOperator {\r\n        _mint(account, amount);\r\n    }\r\n\r\n    /**\r\n    * @dev Transfer token for a specified address\r\n    * @param to The address to transfer to.\r\n    * @param value The amount to be transferred.\r\n    */\r\n    function transfer(address to, uint256 value) public canTransfer(to) returns (bool) {\r\n       revert(\"restricted\");\r\n    }\r\n\r\n    /**\r\n    * @dev Transfer tokens to the operator from the specified address\r\n    * @param from The address to transfer from.\r\n    * @param value The amount to be transferred.\r\n    */\r\n    function operatorTransfer(address from, uint256 value) public onlyOperator returns (bool) {\r\n       revert(\"restricted\");\r\n    }\r\n\r\n    /**\r\n    * @dev Transfer tokens from one address to another\r\n    * @param from address The address which you want to send tokens from\r\n    * @param to address The address which you want to transfer to\r\n    * @param value uint256 the amount of tokens to be transferred\r\n    */\r\n    function transferFrom(\r\n        address from,\r\n        address to,\r\n        uint256 value\r\n    )\r\n        public\r\n        canTransfer(to)\r\n        returns (bool)\r\n    {\r\n      revert(\"restricted\");\r\n    }\r\n\r\n    /**\r\n     * @dev Lock the user's tokens \r\n     * @param _of user's address.\r\n     */\r\n    function lockForMemberVote(address _of, uint _days) public onlyOperator {\r\n        if (_days.add(now) > isLockedForMV[_of])\r\n            isLockedForMV[_of] = _days.add(now);\r\n    }\r\n\r\n    /**\r\n    * @dev Transfer token for a specified address\r\n    * @param to The address to transfer to.\r\n    * @param value The amount to be transferred.\r\n    */\r\n    function _transfer(address to, uint256 value) internal {\r\n        _balances[msg.sender] = _balances[msg.sender].sub(value);\r\n        _balances[to] = _balances[to].add(value);\r\n        emit Transfer(msg.sender, to, value);\r\n    }\r\n\r\n    /**\r\n    * @dev Transfer tokens from one address to another\r\n    * @param from address The address which you want to send tokens from\r\n    * @param to address The address which you want to transfer to\r\n    * @param value uint256 the amount of tokens to be transferred\r\n    */\r\n    function _transferFrom(\r\n        address from,\r\n        address to,\r\n        uint256 value\r\n    )\r\n        internal\r\n    {\r\n        _balances[from] = _balances[from].sub(value);\r\n        _balances[to] = _balances[to].add(value);\r\n        _allowed[from][msg.sender] = _allowed[from][msg.sender].sub(value);\r\n        emit Transfer(from, to, value);\r\n    }\r\n\r\n    /**\r\n    * @dev Internal function that mints an amount of the token and assigns it to\r\n    * an account. This encapsulates the modification of balances such that the\r\n    * proper events are emitted.\r\n    * @param account The account that will receive the created tokens.\r\n    * @param amount The amount that will be created.\r\n    */\r\n    function _mint(address account, uint256 amount) internal {\r\n        require(account != address(0));\r\n        _totalSupply = _totalSupply.add(amount);\r\n        _balances[account] = _balances[account].add(amount);\r\n        emit Transfer(address(0), account, amount);\r\n    }\r\n\r\n    /**\r\n    * @dev Internal function that burns an amount of the token of a given\r\n    * account.\r\n    * @param account The account whose tokens will be burnt.\r\n    * @param amount The amount that will be burnt.\r\n    */\r\n    function _burn(address account, uint256 amount) internal {\r\n        require(amount <= _balances[account]);\r\n        _totalSupply = _totalSupply.sub(amount);\r\n        _balances[account] = _balances[account].sub(amount);\r\n        emit Transfer(account, address(0), amount);\r\n    }\r\n\r\n    /**\r\n    * @dev Internal function that burns an amount of the token of a given\r\n    * account, deducting from the sender's allowance for said account. Uses the\r\n    * internal burn function.\r\n    * @param account The account whose tokens will be burnt.\r\n    * @param value The amount that will be burnt.\r\n    */\r\n    function _burnFrom(address account, uint256 value) internal {\r\n        require(value <= _allowed[account][msg.sender]);\r\n        // Should https://github.com/OpenZeppelin/zeppelin-solidity/issues/707 be accepted,\r\n        // this function needs to emit an event with the updated approval.\r\n        _allowed[account][msg.sender] = _allowed[account][msg.sender].sub(\r\n        value);\r\n        _burn(account, value);\r\n    }\r\n\r\n}",
  "sourcePath": "E:\\pragati\\plotusSC\\contracts\\PlotusToken.sol",
  "compiler": {
    "name": "solc",
    "version": "0.5.16+commit.9c3226ce.Emscripten.clang"
  },
  "schemaVersion": "3.0.23",
  "updatedAt": "2020-03-20T12:44:57.859Z",
  "networkType": "ethereum",
  "devdoc": {
    "methods": {
      "addToWhiteList(address)": {
        "details": "Adds a user to whitelist",
        "params": {
          "_member": "address to add to whitelist"
        }
      },
      "allowance(address,address)": {
        "details": "Function to check the amount of tokens that an owner allowed to a spender.",
        "params": {
          "owner": "address The address which owns the funds.",
          "spender": "address The address which will spend the funds."
        },
        "return": "A uint256 specifying the amount of tokens still available for the spender."
      },
      "approve(address,uint256)": {
        "details": "Approve the passed address to spend the specified amount of tokens on behalf of msg.sender. Beware that changing an allowance with this method brings the risk that someone may use both the old and the new allowance by unfortunate transaction ordering. One possible solution to mitigate this race condition is to first reduce the spender's allowance to 0 and set the desired value afterwards: https://github.com/ethereum/EIPs/issues/20#issuecomment-263524729",
        "params": {
          "spender": "The address which will spend the funds.",
          "value": "The amount of tokens to be spent."
        }
      },
      "balanceOf(address)": {
        "details": "Gets the balance of the specified address.",
        "params": {
          "owner": "The address to query the balance of."
        },
        "return": "An uint256 representing the amount owned by the passed address."
      },
      "burn(uint256)": {
        "details": "burns an amount of the tokens of the message sender account.",
        "params": {
          "amount": "The amount that will be burnt."
        }
      },
      "burnFrom(address,uint256)": {
        "details": "Burns a specific amount of tokens from the target address and decrements allowance",
        "params": {
          "from": "address The address which you want to send tokens from",
          "value": "uint256 The amount of token to be burned"
        }
      },
      "changeOperator(address)": {
        "details": "change operator address ",
        "params": {
          "_newOperator": "address of new operator"
        }
      },
      "constructor": {
        "details": "constructor to mint initial tokens Shall update to _mint once openzepplin updates their npm package."
      },
      "decreaseAllowance(address,uint256)": {
        "details": "Decrease the amount of tokens that an owner allowed to a spender. approve should be called when allowed_[_spender] == 0. To decrement allowed value is better to use this function to avoid 2 calls (and wait until the first transaction is mined) From MonolithDAO Token.sol",
        "params": {
          "spender": "The address which will spend the funds.",
          "subtractedValue": "The amount of tokens to decrease the allowance by."
        }
      },
      "extendLock(bytes32,uint256)": {
        "details": "Extends lock for a specified reason and time",
        "params": {
          "_reason": "The reason to lock tokens",
          "_time": "Lock extension time in seconds"
        }
      },
      "getUnlockableTokens(address)": {
        "details": "Gets the unlockable tokens of a specified address",
        "params": {
          "_of": "The address to query the the unlockable token count of"
        }
      },
      "increaseAllowance(address,uint256)": {
        "details": "Increase the amount of tokens that an owner allowed to a spender. approve should be called when allowed_[_spender] == 0. To increment allowed value is better to use this function to avoid 2 calls (and wait until the first transaction is mined) From MonolithDAO Token.sol",
        "params": {
          "addedValue": "The amount of tokens to increase the allowance by.",
          "spender": "The address which will spend the funds."
        }
      },
      "increaseLockAmount(bytes32,uint256)": {
        "details": "Increase number of tokens locked for a specified reason",
        "params": {
          "_amount": "Number of tokens to be increased",
          "_reason": "The reason to lock tokens"
        }
      },
      "lock(bytes32,uint256,uint256)": {
        "details": "Locks a specified amount of tokens against an address,     for a specified reason and time",
        "params": {
          "_amount": "Number of tokens to be locked",
          "_reason": "The reason to lock tokens",
          "_time": "Lock time in seconds"
        }
      },
      "lockForMemberVote(address,uint256)": {
        "details": "Lock the user's tokens ",
        "params": {
          "_of": "user's address."
        }
      },
      "mint(address,uint256)": {
        "details": "function that mints an amount of the token and assigns it to an account.",
        "params": {
          "account": "The account that will receive the created tokens.",
          "amount": "The amount that will be created."
        }
      },
      "operatorTransfer(address,uint256)": {
        "details": "Transfer tokens to the operator from the specified address",
        "params": {
          "from": "The address to transfer from.",
          "value": "The amount to be transferred."
        }
      },
      "removeFromWhiteList(address)": {
        "details": "removes a user from whitelist",
        "params": {
          "_member": "address to remove from whitelist"
        }
      },
      "tokensLocked(address,bytes32)": {
        "details": "Returns tokens locked for a specified address for a     specified reason ",
        "params": {
          "_of": "The address whose tokens are locked",
          "_reason": "The reason to query the lock tokens for"
        }
      },
      "tokensLockedAtTime(address,bytes32,uint256)": {
        "details": "Returns tokens locked for a specified address for a     specified reason at a specific time ",
        "params": {
          "_of": "The address whose tokens are locked",
          "_reason": "The reason to query the lock tokens for",
          "_time": "The timestamp to query the lock tokens for"
        }
      },
      "tokensUnlockable(address,bytes32)": {
        "details": "Returns unlockable tokens for a specified address for a specified reason",
        "params": {
          "_of": "The address to query the the unlockable token count of",
          "_reason": "The reason to query the unlockable tokens for"
        }
      },
      "totalBalanceOf(address)": {
        "details": "Returns total tokens held by an address (locked + transferable)",
        "params": {
          "_of": "The address to query the total balance of"
        }
      },
      "totalSupply()": {
        "details": "Total number of tokens in existence"
      },
      "transfer(address,uint256)": {
        "details": "Transfer token for a specified address",
        "params": {
          "to": "The address to transfer to.",
          "value": "The amount to be transferred."
        }
      },
      "transferFrom(address,address,uint256)": {
        "details": "Transfer tokens from one address to another",
        "params": {
          "from": "address The address which you want to send tokens from",
          "to": "address The address which you want to transfer to",
          "value": "uint256 the amount of tokens to be transferred"
        }
      },
      "transferWithLock(address,bytes32,uint256,uint256)": {
        "details": "Transfers and Locks a specified amount of tokens,     for a specified reason and time",
        "params": {
          "_amount": "Number of tokens to be transfered and locked",
          "_reason": "The reason to lock tokens",
          "_time": "Lock time in seconds",
          "_to": "adress to which tokens are to be transfered"
        }
      },
      "unlock(address)": {
        "details": "Unlocks the unlockable tokens of a specified address",
        "params": {
          "_of": "Address of user, claiming back unlockable tokens"
        }
      }
    }
  },
  "userdoc": {
    "methods": {}
  }
}